:100000000C945C000C9479000C9479000C947900A9
:100010000C9479000C9479000C9479000C9479007C
:100020000C9479000C9479000C9479000C9479006C
:100030000C9479000C9479000C9479000C9479005C
:100040000C945A010C9479000C9479000C9479006A
:100050000C9479000C9479000C9479000C9479003C
:100060000C9479000C947900000000080002010053
:100070000003040700000000000000000102040863
:100080001020408001020408102001020408102002
:10009000040404040404040402020202020203032E
:1000A0000303030300000000250028002B000000CC
:1000B0000000240027002A0011241FBECFEFD8E043
:1000C000DEBFCDBF11E0A0E0B1E0EEECF5E002C094
:1000D00005900D92AE30B107D9F721E0AEE0B1E066
:1000E00001C01D92A731B207E1F70E94D5020C941E
:1000F000E5020C94000061E080910B010E94650212
:1001000061E0809109010E94650261E08091070130
:100110000E94650261E0809105010E94650261E034
:10012000809103010E94650261E0809101010C94BD
:10013000650261E080910B010C949E0261E0809168
:1001400005010C949E020E9499000C949E0061E0AF
:10015000809109010E949E0260E0809107010C9449
:100160009E0260E0809109010E949E0261E0809100
:1001700007010C949E0261E0809103010E949E029F
:1001800060E0809101010C949E02CF93DF93EC011B
:100190000E94A7000E94BB00BE01882777FD8095C2
:1001A000982FDF91CF910C94C701CF93DF93EC018F
:1001B0000E94B1000E94BB00BE01882777FD809598
:1001C000982FDF91CF910C94C70160E080910301DB
:1001D0000E949E0261E0809101010C949E02CF93E7
:1001E000DF93EC010E94B1000E94E500BE01882768
:1001F00077FD8095982FDF91CF910C94C701CF9315
:10020000DF93EC010E94A7000E94E500BE01882751
:1002100077FD8095982FDF91CF910C94C70160E016
:10022000809109010E949E0260E0809107010C9478
:100230009E0260E0809103010E949E0260E0809136
:1002400001010C949E02CF93DF93EC010E940F01F9
:100250000E941901BE01882777FD8095982FDF91B4
:10026000CF910C94C70180910001882311F160EDBA
:1002700077E080E090E00E94C7010E94A30088EC34
:1002800090E00E94C50088EC90E00E94EF0080E9B9
:1002900091E00E94D50088EC90E00E94230180E963
:1002A00091E00E94FF0088EC90E00E9423011092F0
:1002B000000108951F920F920FB60F9211242F93F1
:1002C0003F938F939F93AF93BF9380910F01909132
:1002D0001001A0911101B091120130910E0123E0A3
:1002E000230F2D3720F40196A11DB11D05C026E86E
:1002F000230F0296A11DB11D20930E0180930F01C3
:1003000090931001A0931101B093120180911301F9
:1003100090911401A0911501B09116010196A11DB3
:10032000B11D8093130190931401A0931501B09314
:100330001601BF91AF919F918F913F912F910F9097
:100340000FBE0F901F9018953FB7F894809113013E
:1003500090911401A0911501B091160126B5A89BAA
:1003600005C02F3F19F00196A11DB11D3FBF6627A3
:10037000782F892F9A2F620F711D811D911D42E0E8
:10038000660F771F881F991F4A95D1F708958F929E
:100390009F92AF92BF92CF92DF92EF92FF926B014A
:1003A0007C010E94A4014B015C01C114D104E10451
:1003B000F104F1F00E94E4020E94A4016819790995
:1003C0008A099B09683E73408105910570F321E01D
:1003D000C21AD108E108F10888EE880E83E0981E61
:1003E000A11CB11CC114D104E104F10429F7DDCF33
:1003F000FF90EF90DF90CF90BF90AF909F908F9045
:100400000895789484B5826084BD84B5816084BD8C
:1004100085B5826085BD85B5816085BDEEE6F0E07D
:10042000808181608083E1E8F0E0108280818260D9
:100430008083808181608083E0E8F0E0808181605A
:100440008083E1EBF0E0808184608083E0EBF0E08A
:10045000808181608083EAE7F0E08081846080832E
:1004600080818260808380818160808380818068D8
:1004700080831092C1000895833081F028F4813088
:1004800099F08230A1F008958730A9F08830B9F052
:100490008430D1F4809180008F7D03C080918000F2
:1004A0008F7780938000089584B58F7702C084B5DC
:1004B0008F7D84BD08958091B0008F7703C08091B7
:1004C000B0008F7D8093B0000895CF93DF9390E0CC
:1004D000FC01E458FF4F2491FC01E057FF4F849149
:1004E000882349F190E0880F991FFC01E255FF4FE6
:1004F000A591B4918C559F4FFC01C591D4919FB7A4
:10050000611108C0F8948C91209582238C93888186
:1005100082230AC0623051F4F8948C91322F3095C6
:1005200083238C938881822B888304C0F8948C91D8
:10053000822B8C939FBFDF91CF9108950F931F93D0
:10054000CF93DF931F92CDB7DEB7282F30E0F901AC
:10055000E859FF4F8491F901E458FF4F1491F901D4
:10056000E057FF4F04910023C9F0882321F06983ED
:100570000E943C026981E02FF0E0EE0FFF1FEC5576
:10058000FF4FA591B4919FB7F8948C91611103C06E
:100590001095812301C0812B8C939FBF0F90DF9119
:1005A000CF911F910F91089508950E9401020E941A
:1005B000D4020E947B00C0E0D0E00E94330120976B
:0E05C000E1F30E940000F9CF0895F894FFCFF8
:0E05CE0001030004000A00050006000B0000F7
:00000001FF
